:020000041000EA
:1000000000B5324B212058609868022188439860DF
:10001000D860186158612E4B002199600221596106
:100020000121F02299502B49196001219960352056
:1000300000F044F80222904214D00621196600F024
:1000400034F8196E01211966002018661A6600F04E
:100050002CF8196E196E196E052000F02FF8012189
:100060000842F9D1002199601B49196000215960AB
:100070001A491B48016001219960EB211966A021F2
:10008000196600F012F800219960164914480160C1
:100090000121996001BC002800D000471248134993
:1000A000086003C880F30888084703B5996A0420EC
:1000B0000142FBD001200142F8D103BD02B5186610
:1000C0001866FFF7F2FF186E186E02BD00000240BE
:1000D000000000180000070000035F00212200005C
:1000E000F4000018222000A00001001008ED00E03C
:1000F00000000000000000000000000074B24E7A12
:1001000000200420F7010010C3010010C5010010F9
:10011000C1010010C1010010C1010010C101001097
:10012000C1010010C1010010C1010010C701001081
:10013000C1010010C1010010C9010010CB01001065
:10014000CD010010CD010010CD010010CD01001037
:10015000CD010010CD010010CD010010CD01001027
:10016000CD010010CD010010CD010010CD01001017
:10017000CD010010CD010010CD010010CD01001007
:10018000CD010010CD010010CD010010CD010010F7
:10019000CD010010CD010010CD010010CD010010E7
:1001A000CD010010CD010010CD010010CD010010D7
:1001B000CD010010CD010010CD010010CD010010C7
:1001C00000BE00BE00BE00BE00BE00BE00F04BF888
:1001D000103800BEF2EB88713C8E0010688E001063
:1001E0003402001090A31AE700202149086006C8D5
:1001F00081F3088810471F48006800282FD10DA4FC
:100200000ECC002902D000F012F8F9E71A491B4A77
:10021000002000E001C19142FCD1194988471949E9
:1002200088471949884700BEFDE701C901C29A42C3
:10023000FBD37047688E0010C00000205C060020D1
:100240000494001000000420000004200494001016
:1002500000100420001004200000000070470B482C
:1002600004F006FD0047EFF30580C0B270470000C0
:1002700008ED00E0000000D060060020801900209A
:10028000A54600101D270010994700105756000082
:1002900006005250ABB36053D48B0010060052508E
:1002A000861C0302E48B0010060052505422A29DCB
:1002B000048C001005005250DE65F46804940010B0
:1002C000F8B5C0460448054B10B5834203D0044B33
:1002D000002B00D0984710BD5C0600205C06002073
:1002E0000000000006480749091A8910CB0F591869
:1002F00010B5491003D0044B002B00D0984710BD17
:100300005C0600205C0600200000000010B5074CD1
:100310002378002B09D1FFF7D5FF054B002B02D026
:10032000044800E000BF0123237010BDB007002087
:100330000000000070800010054B10B5002B03D0AA
:100340000449054800E000BFFFF7CCFF10BDC046E0
:1003500000000000B407002070800010F8B5F026FF
:100360000D4D0400A8590A21013004F0D7FC002CDF
:100370000FD0F423EB588B420BD0AA5953009B1893
:10038000DB00EB1885CC85C385CC85C30020A95143
:10039000F8BD01204042FBE7CC07002070B50028E3
:1003A00018D0F425F0230D4C6259E3589A4211D02D
:1003B000625953009B180200DB00E31843CB43C291
:1003C00043CB43C260590A21013004F0A7FC00204E
:1003D000615170BD01204042FBE7C046CC070020C0
:1003E000024B1A681860C2607047C046C4080020FB
:1003F000054B10B51C68002C04D0A3689847E4682E
:10040000002CFAD110BDC046C4080020002070475F
:1004100010B500F015F8002010BDC04610B5024818
:10042000FFF7DEFF10BDC04670030020024B1A68C4
:10043000024BDA607047C0460C12002070030020A7
:1004400010B500F00FF810BD10B500F031F810BD78
:1004500010B500F053FA10BD10B5406800F052FB23
:1004600010BDC04610B50F2002F020FB132002F093
:100470001DFB152002F01AFBD02380221B0612025E
:100480009A62802212039A62802292039A62012168
:1004900000220F2002F0DCFA00220121132002F0DA
:1004A000D7FA00220121152002F0D2FA10BDC04671
:1004B000D02310B51B065A682D4C86B02368120451
:1004C0002CD401332360D0231B065A68294C23689F
:1004D000120311D401332360D0231B065A68264C23
:1004E0002368920217D51A002449153A8A421ED968
:1004F0000023236006B010BD1A00EF21153A490011
:100500008A421ED900232360D0231B065A681A4C46
:1005100023689202E7D401332360EBE71A00EF214E
:10052000153A49008A4218D900232360CBE70022FC
:10053000694668460A70023201920293FFF70EFF85
:10054000D6E70022694668460A700132029301929A
:10055000FFF704FF00232360D6E7002269466846C0
:1005600002930A700192FFF7F9FE00232360AAE7C5
:100570003416002004120020781600208A0F000094
:1005800010B51B2002F092FAD02380221B06120520
:100590005A629A6110BDC04670B50026164D84B0EF
:1005A0001649280007F0A4FB0321062002F038FAC0
:1005B0000321072002F034FA00220121062002F074
:1005C00047FA00220121072002F042FA0C4B03AC4B
:1005D00023802200009602236821280007F00CFCEB
:1005E0000F2322002380682100960D3B280007F08E
:1005F00003FC04B070BDC0462C060020801A060023
:100600000E2000000F22F0B50123002787B0324EE4
:100610006A4404AD0400177068210093300007F0AD
:10062000EBFB07232A0068210097300007F052FCFB
:1006300029780B119A009B180F225B0011405B1860
:10064000697823700B1198001B185B001140A87883
:100650005B18637043060CD5C306DB0F99005B186B
:100660005B0002409B18DBB2820632D50B33A370CD
:1006700006E001118B00C918490002408A18A270D7
:10068000EA78131199005B180F215B000A409B1850
:10069000E3702B791A11900012180B405200D218F7
:1006A0006B792271DA06D20F900012180B405200BB
:1006B000D2186271AA7913111140FA22D20094461D
:1006C00098001B185B005B18DBB26344E38007B043
:1006D000F0BD013BA370D3E72C060020F0B50A253E
:1006E0001123002685B06D442B70104B104C1B88D5
:1006F00003AA13800700009602236821200007F058
:100700007BFB01232A000B2500936D446821200008
:1007100007F072FB009601232A006821200007F0F1
:10072000D9FB2B783B7005B0F0BDC0467C80001033
:100730002C060020F0B5002685B003AD0A21070085
:100740002E7004F0EBFA0A210401380004F0E6FAF6
:1007500064186C70022300962A006821024807F092
:100760004BFB05B0F0BDC0462C060020012370B540
:1007700084B003AD0A212B70060004F0CFFA0A21E1
:100780000401300004F0CAFA002364186C702A00D7
:10079000009368210233024807F02EFB04B070BDBD
:1007A0002C060020022370B584B003AD0A212B7003
:1007B000060004F0B3FA0A210401300004F0AEFA96
:1007C000002364186C702A000093682102330248E9
:1007D00007F012FB04B070BD2C060020032370B597
:1007E00084B003AD0A212B70060004F097FA0A21A9
:1007F0000401300004F092FA002364186C702A009F
:10080000009368210233024807F0F6FA04B070BD85
:100810002C060020042370B584B003AD0A212B7090
:10082000060004F07BFA0A210401300004F076FA95
:10083000002364186C702A00009368210233024878
:1008400007F0DAFA04B070BD2C060020052370B55D
:1008500084B003AD0A212B70060004F05FFA0A2170
:100860000401300004F05AFA002364186C702A0066
:10087000009368210233024807F0BEFA04B070BD4D
:100880002C060020062370B5303084B0C4B203AD0E
:100890000A2120002B7004F041FA0A2106012000F1
:1008A00004F03CFA002376186E702A000093682149
:1008B0000233024807F0A0FA04B070BD2C060020F5
:1008C00010B504F039FC07F051FB1F211A2002F08B
:1008D000A7F8002200211A2002F0BAF800211A20FD
:1008E00002F0D0F8E022034BD2011B681340024A09
:1008F000136010BD00C0044000D00440F0B5DE46D7
:100900004E4645465746E0B50220A1B002F0CEF86B
:10091000032002F0CBF8042002F0C8F8052002F012
:10092000C5F8082002F0C2F8092002F0BFF80A203A
:1009300002F0BCF8102002F0B9F8122002F0B6F86C
:10094000142002F0B3F8162002F0B0F80B2002F0E9
:10095000ADF80C2002F0AAF8D0240D2002F0A6F881
:100960000423240663620433636208336362103332
:100970006362E03363620133FF3363628023DB0031
:10098000636280235B0263628023DB0263628023F5
:100990005B0363628023DB03636280228023802108
:1009A0001B01520189016362684662626162616192
:1009B000A2615349A361402204F08EFA4022002133
:1009C00010A804F083FA01231993033300269846F4
:1009D0009B460BE0802380275B013F01A36102203F
:1009E0006761002103F08EF80136A7615B46802124
:1009F000A36180230825102720206A469B00490018
:100A0000A5619C46A761A061A161A361F23BFF3B88
:100A100033409B00D358012B07D1434663616346A3
:100A200065616761606161616361342ED2DD80233D
:100A30005B0163619A4680231B0199466361022032
:100A4000002103F05FF84B460136A361402ECDD163
:100A50005346A3614B46A3610023D0249946043337
:100A60000026240698469B4613E0802380275B01DE
:100A70003F01A36102206761002103F043F80136C2
:100A8000A7610F236A46402133409B005218D35878
:100A900099465B468022A3618023082710202021ED
:100AA0004D4652009B00A761A061A161A261A361B4
:100AB000012D06D1454665616761606161616261D2
:100AC0006361332ED1DD80235B0163619A4680230D
:100AD0001B01994663610220002103F013F84B4685
:100AE0000136A361402ECCD15346A3614B46A3618E
:100AF00021B03CBC90469946A246AB46F0BDC046EC
:100B000080800010F0B5DE4657464E464546E0B5BB
:100B1000704B89B01A780132D2B20F2A00D9B1E0F5
:100B20001A70012313400493D3000193803302937E
:100B30000423134005930223134006930823019CCA
:100B40001340079301236449A4460B70D0238021EE
:100B50001B06890159610100614400915F499201BE
:100B6000080008308246483192448A1803920422D1
:100B70008026914601253601009A01991478521A6F
:100B80000299505C08218B46083152468846103144
:100B90008C46083A4F4611789E619F615F469F617F
:100BA00047469F6167469F6180277F009F61FF19CD
:100BB0009F6125420BD04F460F4200D05F618F07E7
:100BC00001D55F465F610D4201D047465F61054236
:100BD0000FD04F0601D567465F6167460F4202D0CE
:100BE00080277F005F6147460F4202D08021890045
:100BF00059610132640840085E615245CAD10099CA
:100C00000131009108218A469244039A9245B3D15A
:100C1000049B002B55D08023D022DB0012065361A9
:100C2000069B002B47D0D02380221B0652025A611C
:100C3000059B002B39D0D02380221B06D2025A619B
:100C4000079B002B2BD0D02380221B0652035A6116
:100C5000D02380221B06D2039A61802252015A615E
:100C60009A6100221C490A701D4A117800292ED170
:100C7000802292019A6109B03CBC90469946A246F6
:100C8000AB46F0BD00221A7000230793069305932C
:100C9000803302930023019304931C0052E7D02376
:100CA00080221B0652039A61D2E7D02380221B06C2
:100CB000D2029A61C4E7D02380221B0652029A61B5
:100CC000B6E78023D022DB0012069361A8E7012358
:100CD0001370D0E7A7160020A3160020040E0020F2
:100CE00024050020F0B5C64600B506AC8046207845
:100CF00007AC2478012C1CD0002C17D1994215D8B0
:100D0000000140B2904511D8154C0F27A446444627
:100D10008E016644355D3D40054335550134E4B2EE
:100D2000A242F7D20131C9B28B42F0D204BC904644
:100D3000F0BD9942FAD89045F8D8094C0F27A4463F
:100D400044468E016644355DBD4305433555013447
:100D5000E4B2A242F7D20131C9B28B42F0D2E5E748
:100D6000040E002010B502AC24784068002C05D099
:100D7000012C09D0022C04D0002010BD01F078F81D
:100D8000FAE701F0B7F9F7E701F010F9F4E7C04628
:100D900010B5FFF761FB10BD10B5FFF759FB10BD93
:100DA00000487047800300208022F0B50400002531
:100DB00083B00E0052000021406804F087F85323EE
:100DC00005220A21E76900952000B847452305223E
:100DD0001021E76900952000B8475423052215210A
:100DE000E76900952000B8474C2305222321E769D5
:100DF00000952000B847492305222821E76900957E
:100E00002000B847532305222D21E76900952000D3
:100E1000B84700955423052233212000E769B847DD
:100E2000012E45D1542315220A21E66900952000A0
:100E3000B047492315221021E66900952000B047EC
:100E40004D231522152100952000E669B047452362
:100E500015221B210095E6692000B0470095532319
:100E600015222821E6692000B04700954523152268
:100E70002E212000E669B04700955423E56915222C
:100E800033212000A84701233F2201930093002132
:100E90000E330020FFF726FF002301930433009355
:100EA0003F220B3300210020FFF71CFF03B0F0BDF1
:100EB000022E19D1442315220A21E669009520004B
:100EC000B047412315220F21E66900952000B04765
:100ED00054231522142100952000E669B04700959F
:100EE000452315221A21B6E7032E3FD10095E66966
:100EF000412315220A212000B0470095E6695523B9
:100F000015220F212000B0470095E66954231522D1
:100F100014212000B0470095E6694F2315221A21BD
:100F20002000B0470095E6694C23152223212000BC
:100F3000B0470095E6694923152228212000B047D3
:100F40000095E669472315222D212000B047009522
:100F50004823152232212000E669B047009554232A
:100F6000E569152237212000A8478CE7042E1CD103
:100F70000095E6694223152214212000B047009510
:100F8000E6694523152219212000B0470095452325
:100F900015221E212000E669B04700955023E5691F
:100FA000152223212000A8476DE7052E00D06AE70F
:100FB0000095E6694C2315220C212000B0470095CE
:100FC000E6694123152211212000B0470095E6690A
:100FD0004E23152216212000B0470095E6694723CD
:100FE00015221B212000B0470095E66955231522E4
:100FF00020212000B0470095E669412315222521D4
:101000002000B0470095472315222A212000E669D9
:10101000B04700954523E56915222F212000A847F8
:1010200031E7C046F0B5D6464F4646469046802248
:10103000C0B58946002682B004009A4652000AAB29
:101040000021406801259E5703F040FF0A214846D1
:1010500003F064FE0095C3B20B220321E769200070
:10106000B8470A21484603F059FE0095CBB20B223F
:101070000B21E7692000B84700951A230B221321A2
:10108000E7692000B8470A21404603F047FE009573
:10109000C3B20B221821E7692000B8470A21404655
:1010A00003F03CFE0095CBB20B222021E769200023
:1010B000B84700951A230B222821E7692000B8477A
:1010C0000A21504603F02AFE0095C3B20B222D21BF
:1010D0002000E769B8470A21504603F01FFE00953B
:1010E000CBB20B2235212000E569A847002E27D17D
:1010F0000096E5695E23162208212000A8470124F6
:101100000025019400940F233F2200210020FFF7C7
:10111000E9FD0195009404233F2200210020FFF700
:10112000E1FD0623019500933F22093305210020AC
:10113000FFF7D8FD02B01CBC90469946A246F0BD10
:10114000012E08D100230093E5695E3316221D218C
:101150002000A847D3E7022ED1D100230093E569F0
:101160005E33162232212000A847C8E7F0B5D646E4
:101170004F46464690468022C0B5002682B0040005
:1011800089469A4652000AAB002140689E5703F0F8
:101190009DFEFA214846890003F0C0FD00250300AA
:1011A00000953033DBB20D220A21E7692000B847F1
:1011B0006421484603F0B2FD0A2180B203F0AEFD7F
:1011C0000B0000953033DBB20D220F21E7692000C0
:1011D000B8470A21484603F0A1FD0A2180B203F076
:1011E0009DFD0B0000953033DBB20D221421E76921
:1011F0002000B8470A21484603F090FD0B000095F7
:101200003033DBB20D221921E7692000B847009581
:101210002D230D221E21E7692000B8470A214046F0
:1012200003F07CFD030000953033DBB20D22212159
:10123000E7692000B8470A21404603F06FFD0B0024
:1012400000953033DBB20D222621E7692000B84734
:1012500000952D230D222B21E7692000B8470A2194
:10126000504603F05BFD030000953033DBB20D22E6
:101270002E21E7692000B8470A21504603F04EFDB1
:101280000B0000953033DBB20D2233212000E769DB
:10129000B847002E27D10096E5695E23152211215B
:1012A0002000A84701240025019400940F233F2229
:1012B00000210020FFF716FD0195009404233F2232
:1012C00000210020FFF70EFD0623019500933F2229
:1012D000093305210020FFF705FD02B01CBC904634
:1012E0009946A246F0BD012E07D10095E5695E231F
:1012F000152223212000A847D4E7022ED2D1009541
:10130000E5695E23152230212000A847CAE7C046C0
:10131000F0B5CE464746914680220400002580B5B0
:101320000E0083B0520000214068984603F0CEFDC5
:101330000095302304221C21E7692000B84700955E
:101340004E2304222121E7692000B847009530236D
:1013500014221A21E7692000B84700954623142279
:101360001F212000E769B847009546231422242155
:101370002000E569A847032E25D0042E17D00123AD
:101380003F220193009300210E330020FFF7AAFCB7
:1013900000230193043300933F220B3300210020EC
:1013A000FFF7A0FC03B00CBC90469946F0BD434645
:1013B000E569002B0BD0012302220093142118337E
:1013C0002000A847DBE74B46E569002BF3D101334A
:1013D00000931222183312212000A847CFE7C046FD
:1013E0008022F0B50400002583B052000E00406852
:1013F000002103F06BFD0095492304220F21E769CA
:101400002000B8470095542304221421E7692000E6
:10141000B8470095412304221A21E7692000B84704
:1014200000954C2304221F21E7692000B84700954E
:10143000492304222321E7692000B847009541236E
:1014400004222821E7692000B84700954E23042292
:101450002D21E7692000B8470095452314220F216C
:10146000E7692000B84700954E2314221421E7694C
:101470002000B8470095472314221921E76920006E
:10148000B84700954C2314221E21E7692000B84775
:101490000095492314222221E7692000B8470095CE
:1014A0005323142227212000E769B84700954823D9
:1014B000E56914222D212000A8470123E569009346
:1014C0001833002E18D0122207212000A84701232C
:1014D0003F220193009300210E330020FFF702FC0E
:1014E00000230193043300933F220B33002100209B
:1014F000FFF7F8FB03B0F0BD022207212000A84748
:10150000E5E7C046F0B51F275C4B5D4EC3189B0056
:10151000F558C6462F403C006B0600B59B0F1E34A5
:10152000012B01D1013FBCB24B1E564F5B00DB5B70
:10153000D21892B2531E9BB2870701D102296FD8ED
:101540009C4239D8802729003F0339401A1B4B1E83
:101550009941280292B21D31000F8A4200D285E0E3
:1015600000230124521A9C46611C013392B2884622
:10157000834210D001339BB219003E002641354210
:1015800015D01D2A5AD91E214446521A611C92B206
:1015900088468342EED1614601314AD10026B446E5
:1015A0003E00264101339BB219003542E9D11C2A85
:1015B00044D91D214446E8E7E41A304B01389C46E3
:1015C00080B2604480003758A4B23802000F8023F4
:1015D0000D25002801D10C255B003B4222D01F22A3
:1015E0001E21A14245D28022120300260C239446DC
:1015F000023D641AA4B2002E01D1013B9BB2190036
:10160000984200D1F64362462A41013D17420CD070
:101610001E2C23D91E21641AA4B2002EEFD1ECE7B0
:1016200013008DE71E221D21DBE71D2C1CD91D2177
:10163000DFE7012676421900B4469EE79B011BB204
:10164000013292B2401A414248410F4CC0B2258843
:101650002A431343238004BC9046F0BD1F229B0104
:101660001BB2121B92B2EDE71E22F8E740230121C4
:10167000E6E7C0230C219B00F3E7C04693F8FFFF89
:101680003C8100105884001098160020F0B5DE460A
:101690004E464546574690468022E0B500260D004E
:1016A00083B0520000210400406803F00FFCDA4FC1
:1016B0003E802A796979E888FFF724FF3988D74B7B
:1016C0008A05120F1A703F23D54A0B401370D54B71
:1016D0001F789946002F00D0AAE1D34B01219A46EA
:1016E0005246EB78E669013B9B009B5820001B7833
:1016F00001220097B0475246EB780621013B9B0040
:101700009B58E6695B78012200972000B04752465B
:10171000EB780B21013B9B009B5820009B7801221A
:101720000097E669B047287909280CD90A2103F007
:10173000F5FA03003033DBB20097012212212000BA
:10174000E669B04728790A2103F0E8FA0B00002681
:101750003033DBB2009601221721E7692000B84739
:10176000B24B1E219A4652466B79E769013B9B00BA
:101770009B5820001B7801220096B84752466B798F
:101780002321013B9B009B58E7695B78012200966F
:101790002000B84752466B792821013B9B009B589B
:1017A000E7699B78012200962000B84752466B7982
:1017B0002D21013B9B009B58E769DB7801220096B5
:1017C0002000B84752466B793221013B9B009B5861
:1017D000E7691B79012200962000B84752466B79D1
:1017E0003721013B9B009B5820005B79012200962A
:1017F000E769B84752466B793C21013B9B009B58F7
:1018000020009B7901220096E669B04701230193ED
:10181000013300933F22073300210020FFF762FAD3
:10182000A8780A21022603F079FA0B22C3B2032119
:10183000E76900962000B847A8780A2103F06EFAFD
:101840000B22CBB2E7690B2100962000B8471A2380
:101850000B221321E76900962000B84768780A2117
:1018600003F05CFA0B22C3B21821E769009620004E
:10187000B84768780A2103F051FA0B22CBB2E76926
:10188000202100962000B8470123019306339B4690
:101890000093272208330B210020FFF723FA0023AF
:1018A0009A4601935B46272200930021033B0020C8
:1018B000FFF718FA1A230B222821E7690096200067
:1018C000B84728780A2103F029FA0B22C3B22D2148
:1018D00000962000E769B84728780A2103F01EFA2D
:1018E0000B22CBB2E569352100962000A8470125DF
:1018F0000F23019500953F220B212820FFF7F2F9D5
:101900005346009501933F22043300212820FFF71E
:10191000E9F94B461D78002D00D043E154231822ED
:101920000221E66900952000B047452318220821CE
:10193000E66900952000B0474D2318220D21E66985
:1019400000952000B047502318221321E669009526
:101950002000B0472E2318221721E66900952000A9
:10196000B047492318221A21E66900952000B047A4
:101970004E2318221F21E66900952000B04754230A
:1019800018222421E66900952000B0472E23182252
:10199000292100952000E669B047042301950093B2
:1019A0002B220B3306210020FFF79CF943460A2126
:1019B000187803F0B3F90300002530331822E669E4
:1019C000DBB200952D212000B04743460A2118784C
:1019D00003F0A4F90B003033E669DBB2009518225E
:1019E00032212000B0470123E66900931522173306
:1019F00037212000B0470423019500933F220B3389
:101A000006212C20FFF76EF903B03CBC90469946A6
:101A1000A246AB46F0BDC04698160020A81600208E
:101A2000A4160020A2160020E8040020B80400201C
:101A3000FA21E888890003F071F903003033DBB242
:101A400001220096E76901212000B847E888642157
:101A500003F064F90A2180B203F060F90B0030331F
:101A6000DBB201220096E76906212000B847E8882A
:101A70000A2103F053F90A2180B203F04FF90B0059
:101A80003033DBB200960122E7690B212000B84712
:101A9000E8880A2103F042F90B0030330096E76929
:101AA000DBB2012210212000B84700962D2301222D
:101AB000E76915212000B84768790A2103F02EF95B
:101AC00003003033DBB200960122E76918212000C1
:101AD000B84768790A2103F021F90B0030330096EA
:101AE000E769DBB201221D212000B84700962D23B3
:101AF0000122E76922212000B84728790A2103F052
:101B00000DF903003033DBB200960122E76925218D
:101B10002000B84728790A2103F000F90B00303380
:101B20000096E769DBB201222A212000B847012391
:101B30009B460193013300932D220733002100209F
:101B4000FFF7D0F8754BE7699A465246EB782F219C
:101B500006339B009B5820001B7801220096B84753
:101B60005246EB78352106339B009B5820005B786A
:101B700001220096E769B8475246EB783A210633CE
:101B80009B009B5820009B7801220096E669B04795
:101B90005B463F2201930093002108332E20FFF77C
:101BA000A1F83DE65E4B1D782B000A3B092B02D8BD
:101BB0000A225C4B1A705C4B0A201E7833000A3BE9
:101BC000092B04D90A21300003F0A8F8C0B2574FFE
:101BD000E369387099460A2D27D80A35EBB20125FA
:101BE000162200950A2E61D903212000C8470095CE
:101BF000E669172316220C212000B0473B781622F5
:101C00000A330095DBB216212000E669B047464B47
:101C10000A21187803F082F80A31CBB20095162217
:101C20001F212000E569A84735E001253D4B16221C
:101C30001B7800950A33DBB20A2E4CD90121200013
:101C4000C847374B0A21187803F068F80A31CBB23D
:101C5000009516220921E6692000B0470095172358
:101C600016221121E6692000B0473B7816220A337C
:101C7000DBB200951A212000E669B0472A4B0A2101
:101C8000187803F04BF80A31CBB2009516222221C6
:101C90002000E569A84700230193053300932B2218
:101CA0000A3306210120FFF71DF87FE605212000F9
:101CB000C8470095172316220F212000E669B04778
:101CC000194B16221B781B210A330095DBB220002A
:101CD000E569A847DFE703212000C847104B0A2128
:101CE000187803F01BF80A31CBB20095E66916228A
:101CF0000B212000B0470095172316221321200046
:101D0000E669B047084B16221B781D210A3300955F
:101D1000DBB22000E569A847BDE7C046E804002023
:101D2000A8160020A5160020A4160020A616002044
:101D300070B505000C0083070BD1642102F0EEFFA3
:101D400089B2002905D00C2C59D82E4BA4001B5960
:101D50009F46C8212800490002F0E0FF89B200290F
:101D6000F1D00C2C4BD8284BA4001B599F46274B75
:101D7000D87A70BD254B987AFBE7244B587AF8E760
:101D8000224B187AF5E7214BD879F2E71F4B987967
:101D9000EFE71E4B5879ECE71C4B1879E9E71B4B32
:101DA000D878E6E7194B9878E3E7184B5878E0E7DE
:101DB000164B1878DDE7154BD87BDAE7134BD87D47
:101DC000D7E7124B187BD4E7104B587BD1E70F4B6A
:101DD000987BCEE70D4B187CCBE70C4B587CC8E7C3
:101DE0000A4B987CC5E7094BD87CC2E7074B187DA6
:101DF000BFE7064B587DBCE7044B987DB9E7FF2051
:101E0000B7E7C046CC80001000810010A00400207D
:101E10004B1E70B50500012B03D80C31013DC9B232
:101E2000ADB2541C48000131241848004018052167
:101E300002F04CFF24186419A80824186421280013
:101E400002F06CFFC82180B2241A4900280002F079
:101E500065FF80B22018072102F038FFFF23002021
:101E60001940062901DC014B585C70BD348100101B
:101E7000F0B507244E464546DE46574698462300B1
:101E8000E0B5CE173340760F8D192540AD1BFF26E8
:101E900034005B1887B0E9B2DB1003908946D8B2F2
:101EA000D1B2971D834601911440BC4242DC082107
:101EB00030003540491B0841019141B28C46310048
:101EC000A9401E404B4649B20291002B39D05B46D7
:101ED000062B4AD8344B711C9B464346049141461D
:101EE000DB005B1A9B446346B1469246B8462F001E
:101EF000039DD1B205934A46E30098185246A41AAE
:101F00005A462818125D059E0478013134401600A7
:101F1000BE40344304700498029C84466344EB182A
:101F20001878C9B22040019C224102431A700C006B
:101F30004145E0DD07B03CBC90469946A246AB4621
:101F4000F0BD194B41469B464346DB005B1A0398A4
:101F50005B44D1B2E500A41A1C5D01314519C9B238
:101F6000AC550C00B942F5DDE4E70F4B41469B460A
:101F70004346DB005B1A9B44039BD1B29946130096
:101F800062469C466046E300241A5846045D9B194D
:101F9000AC404B441878013110400443C9B21C7066
:101FA0000C008F42EEDAC5E708850010F0B5072473
:101FB0004E4645465746DE4698462300E0B5CE17C6
:101FC00033405B18DB1087B0760FDDB202958D19B8
:101FD0002540AD1BFF2617003400E9B289460937BA
:101FE000D1B2019000911440BC4246DC082135403A
:101FF000491B8B4631005846014149B28C4631009D
:10200000A9401E404B4649B20091002B3CD0029B98
:10201000062B4DD8364BB246994643469B00434467
:102020005B004B4402936346B9469346711CA84635
:10203000019D03910593D1B204905246E300981894
:102040005A46A41A029A2818125D059E047847463B
:1020500034401600BE40344304700398009C84460C
:102060006344EB18187801312040049CC9B2224126
:1020700002431A700C004945DFDD07B03CBC9046B6
:102080009946A246AB46F0BD194B01989946434686
:102090009B0043445B004B44D1B2E500A41A1C5D95
:1020A00001314519C9B2AC550C00B942F5DDE4E780
:1020B0000F4BD1B2994643469B0043445B00994481
:1020C000019B9A46130062469C466046E300241A30
:1020D0004846045D9B19AC405344187801311040C8
:1020E0000443C9B21C700C008F42EEDAC5E7C0464B
:1020F00088880010F0B507244E4645465746DE4610
:1021000098462300E0B5CE1733405B18DB1087B04C
:10211000760FDDB202958D192540AD1BFF26170005
:102120003400E9B289460937D1B2019000911440D8
:10213000BC4246DC08213540491B8B4631005846DD
:10214000014149B28C463100A9401E404B4649B27C
:102150000091002B3CD0029B062B4DD8364BB2464B
:10216000994643469B0043445B004B4402936346BD
:10217000B9469346711CA846019D03910593D1B2BF
:1021800004905246E30098185A46A41A029A281856
:10219000125D059E0478474634401600BE40344325
:1021A00004700398009C84466344EB18187801314E
:1021B0002040049CC9B2224102431A700C004945D8
:1021C000DFDD07B03CBC90469946A246AB46F0BD69
:1021D000194B0198994643469B0043445B004B448E
:1021E000D1B2E500A41A1C5D01314519C9B2AC5544
:1021F0000C00B942F5DDE4E70F4BD1B299464346F6
:102200009B0043445B009944019B9A46130062463D
:102210009C466046E300241A4846045D9B19AC4086
:1022200053441878013110400443C9B21C700C00AB
:102230008F42EEDAC5E7C046A0890010034B10B507
:10224000186883699847012010BDC046000E002021
:10225000184B1B78012B01D001207047164B1B78BF
:10226000002BF9D1154B1A88154B1B889A4211D9AE
:10227000144A154913880988994211D8D021802021
:102280000906800188611149098899420ED8002306
:102290001380E1E7D02380221B0692019A61DBE7DD
:1022A000D0218020090680014861ECE701331380CA
:1022B000D2E7C04624050020A31600209A1600206D
:1022C000200500209C1600209416002022050020E6
:1022D00070B5194B1B785BB2002B1DD0174B1B78C8
:1022E000012B01D0012070BD04228021144B490034
:1022F0001A60144A13680B42FCD05068124B1880C5
:10230000124B00041B88000CC01A114B198802F0F4
:10231000DDFC104B1880E5E70F4D2800FEF7DEF9D5
:102320000E4C2000FEF76EF90D4B2A0018682100B4
:10233000FFF7ACF9D2E7C046B01600202405002014
:1023400000E0044000C004409A1600202005002050
:102350009616002094160020B716002028050020AD
:10236000000E002070B54E4B1B785BB2012B0FD0D6
:10237000022B0CD14B4B1B78012B34D0022B16D0E7
:10238000032B4BD0042B00D169E0052B09D070BD85
:10239000444A1378013BDBB2002B06D105231370AE
:1023A000F5E7414A137859424B411370EFE73F4B31
:1023B0001B785BB2002B37D13D4C3E4B2088013857
:1023C00080B2984200D83C483C4E20803178FFF7DC
:1023D000AFFC3B4D2B788342D9D931782088FFF769
:1023E000A7FC2870D3E7314B1B785BB2002B08D1D8
:1023F000344A1378013BDBB2FF2BD6D1172313707D
:10240000C5E7012B23D0022BC1D12F4A1378013B02
:10241000DBB2FF2BC9D13B231370B8E72B4A1378EB
:1024200059424B411370B2E7012B1ED0022BAED1A3
:10243000234C2378013BDBB22370002BA7D11F4B29
:1024400019781B4B1888FFF773FC20709FE7204A10
:102450001378013BDBB2FF2BDDD0137097E71D4AE9
:10246000137859424B41137091E7144C217801398C
:10247000C9B200290FD021700D4E3088FFF758FCEB
:102480000F4D2B78834200D881E721783088FFF701
:102490004FFC28707BE70C230C212370ECE7C0462F
:1024A000B016002030050020A2160020B116002032
:1024B0009E160020CF07000033080000B51600204C
:1024C000B3160020B2160020B61600202405002006
:1024D000B4160020A116002070B54D4B1B785BB2DE
:1024E000012B0FD0022B0CD14A4B1B78012B11D0A2
:1024F000022B1CD0032B43D0042B00D169E0052B09
:1025000058D070BD43490A780132D2B2052A0CD99D
:102510000B70F6E70022404B9A56002A24D13F491F
:102520000B780133DBB2182BF2D10A70E9E73A4B92
:102530001B785BB2002B29D1394C3A4B20880130F3
:1025400080B2984201D1FA20C000374E2080317805
:10255000FFF7EEFB354D2B788342D2D931782088B6
:10256000FFF7E6FB2870CCE7012A29D0022AC8D160
:102570002F4A13780133DBB23C2B27D01370C0E70E
:102580002C4A137859424B411370BAE7012B26D0DD
:10259000022BB6D1254C237801332370224B1978B6
:1025A0001F4B1888FFF7C4FB23788342A9D9012366
:1025B0002370A6E7204A137859424B411370A0E7D5
:1025C0001E4A13780133DBB23C2BD7D100231370A2
:1025D00097E71B4A137859424B41137091E7124C0D
:1025E00021780131C9B20D290FD021700C4E3088ED
:1025F000FFF79EFB0D4D2B78834200D881E72178B1
:102600003088FFF795FB28707BE723700121EDE709
:10261000B016002030050020B1160020B2160020B0
:102620009E16002034080000B5160020B3160020C6
:10263000B616002024050020A2160020B4160020A3
:10264000A1160020F8B50023274CE356012B10D02B
:10265000022B06D0013B5BB2002B08DA002323706B
:1026600006E0224D2B785A1E012A0FD90123237030
:10267000F8BD1F4D2800FDF7C5FF1E4B1E4A186808
:102680002900FFF703F80023E356E1E700211B4A86
:1026900011701B4A01311170012B15D0194F387878
:1026A000FEF7B8F8184E3078FEF7D0F8174D2888A6
:1026B000FEF7E8F83A7831782888FFF7A9FBFEF7AB
:1026C0008DF80023E356C5E7114B1878FEF732F872
:1026D000104B1878FEF74AF80F4B1878FEF762F89F
:1026E0002B78022BEDD1D9E7B01600203005002061
:1026F00028050020000E0020B7160020B11600208B
:1027000025050020B3160020B51600209E160020D7
:10271000B6160020B4160020B2160020F0B5DE4632
:1027200057464E464546E0B585B000F01BFF0024F5
:10273000FA22964B92000293954B0194009300234A
:1027400000F0EAFF00F00EFF924B934A0293934B86
:1027500001940093002300F0DFFF00F003FF904B93
:102760000F2202938F4B01940093002300F0D4FFBB
:10277000FEF716FB8C4B9A461860FDF74FFEFDF7EF
:1027800037FEFDF7FDFE53461B685B699847FDF772
:1027900003FFFEF795F8854B854D9846854B864C93
:1027A0009946D0231B06854E854F9B4605E033781E
:1027B000012B27D0012001F0BDF92B78012B2FD060
:1027C000FDF742FE2000FDF7E9FD0028EFD1237858
:1027D000002B07D16268002A4AD0012A00D18CE080
:1027E000022A6BD043461B785BB2012B39D0022BF7
:1027F00025D04B461B78012BD9D180215A4609059B
:10280000516133703B8801339BB23B80642BD1D143
:1028100080225B4612059A61002333703B80C9E732
:102820006848FDF75BFF6848FDF7ECFE5346654AD4
:1028300018686549FEF72AFF00232B70C0E7634B39
:102840001978012926D0022943D0CB1E012B6BD940
:102850000529CED15E4B197853461868FEF7C0FDA6
:10286000C7E75A4B197853461868FEF79DFAC0E738
:102870004346002159564B1C5BB2022943D04246C5
:102880001370022BB1DD514B1978022342461370AD
:102890000129D8D14F4B1B785BB2012B4DD04E4B49
:1028A00019784E4B1A784E4B1B784E48007840B240
:1028B000009050460068FEF7B5FB9AE79623A268A1
:1028C0005B009A422DDDFFF7BDFE43461B785BB2ED
:1028D0008BE7404B1B785BB2012B41D0424B1988F0
:1028E000424B1A78424B1B783E48007840B2009029
:1028F00050460068FEF73AFC7BE7FFF733FD43469E
:102900001B785BB271E7314B19784B1E012BBCD899
:10291000344B1B7801335BB2022B34DC314A137029
:10292000B3E7FFF7D9FD5DE74B465046314A1B78C8
:1029300012780068FEF7ECFC5BE70022254B22488A
:102940001A70FDF75FFE204B25489978224B1970CD
:102950001D4B5A78214B1A701B4B1B780370A4E750
:1029600000221C4B18481A70FDF74CFE164B2048ED
:10297000D9881D4B1980144B5A791C4B1A70124B75
:102980001B790370B0E7174B1A707EE79807002099
:102990003D2200108007002040420F00D12200108D
:1029A0006807002051220010000E0020B016002001
:1029B00031050020A116002010120020A0160020D2
:1029C00092160020B71600202805002030050020B0
:1029D000A216002025050020B2160020B416002003
:1029E000B6160020B11600209E160020B516002055
:1029F000B316002024050020054B06481B8810B59F
:102A0000C01A054B198802F061F9044B188010BDFB
:102A1000200500200410000022050020961600204A
:102A2000094A830094464022634410B51C68C000E4
:102A30006240C02414408022520113431C60034BA7
:102A40009C466044416010BD04C00140004001400C
:102A50000B4B80009C46604400290DD00C210823BC
:102A6000002A00D00B00026853400C221A40802339
:102A70005B0118430260704704210023F0E7C04661
:102A800004C00140084B80009C466044002905D1E9
:102A9000C0239B01184340230360704780239B01A0
:102AA000184340230360F8E704C001400123D0220B
:102AB0008340120693629361094A83009446402240
:102AC00063441968C0004A40C0211140802252016D
:102AD00013431960034B9C460523604443607047D1
:102AE00004C0014000400140F8B5EFF3108772B612
:102AF0000D4E3368002BFCD0BFF35F8F0725CB084A
:102B0000C01801230D40AB401D000478254007D1BB
:102B100023430370BFF35F8F356087F31088F8BDE0
:102B2000100001F03BFEC0462C0100D0F8B5CE46A7
:102B300047468C4680B5EFF3108972B6214D2C685C
:102B4000002CFCD0BFF35F8F9A422CD807210125BF
:102B500011408D40D4080419267835421FD0072132
:102B60008846063909E045460F001540AF40D408B5
:102B7000041926783D00374211D001329342F2D237
:102B800001204042BFF35F8F00220E4B1A6089F391
:102B9000108800280FDB0CBC90469946F8BD3543E1
:102BA00025701000EEE7BFF35F8F00232B6089F3E1
:102BB0001088012040426346002BECD0089801F0B9
:102BC000EDFDC0462C0100D0024B18688007C00FF5
:102BD0007047C04600C006400021044B044ABFF3C2
:102BE0005F8F02C39342FAD17047C046000100D004
:102BF000800100D0044A1078431CDBB2172B00D9A7
:102C0000102313707047C0463205002000B5054BF5
:102C100083B00100009318221F230348FFF786FFAB
:102C200003B000BDB88A00106C0D00200123834062
:102C3000002902D1034A13607047034A1360034A14
:102C40001360F9E780E100E080E200E000E100E0ED
:102C500001238340014A13607047C04600E200E050
:102C6000084B10309B688000C358002B07D0064AE1
:102C700000209B1A2F229A424041C0B27047002088
:102C8000FCE7C04600ED00E034050020024B1030A8
:102C90009B688000C058704700ED00E070B50D00E3
:102CA000EFF3108672B60F4A1368002BFCD0BFF307
:102CB0005F8F0D4B10309B6884001B590B4A934269
:102CC00003D09D4201D001F081FD074B9B681D514F
:102CD000BFF35F8FBFF35F8F0022024B1A6086F352
:102CE000108870BD240100D000ED00E0CD0100107F
:102CF000F0B557464546DE464E46E0B58A4683B0B7
:102D000007009046EFF3108972B6604A1368002BF3
:102D1000FCD0BFF35F8F00205D4B18569B46002808
:102D200000DA83E05A4644005A4E2418A4003519AC
:102D3000AB7910371370584BBA009B6893469A587A
:102D4000931B2F2B2ED9554B9A4201D001F03EFDFB
:102D5000534B02342B80534B3619043B9E1B3605D4
:102D6000514B760D1E43514B0122AB80FF23AB71BB
:102D70004346EB7153466E80AB602A435946464B3F
:102D80009B685A50BFF35F8FBFF35F8F00223F4BAA
:102D90001A6089F3108803B03CBC90469946A2465D
:102DA000AB46F0BD012311009943CB798C464345D6
:102DB00042D90627CF57002F05DA22E00627DF5732
:102DC0001900002F1DDB7B00DB199B00F318DF7956
:102DD0004745F3D800292FD00627CF570B1D019365
:102DE000002F4FDB8B8804345B0534191B150E1D37
:102DF000F618361BE0243605760D24022643019B87
:102E000003E0BD260B1D019336022C1FE31A1B05A0
:102E1000254C5B0D23438B80254B88712B604346EB
:102E2000EB715346AE80AF71AB60A7E701F0CEFC0B
:102E30005B460020185675E71E4A63469B1B5B41A4
:102E40005A43120D164BA11C2B80164B7118043BD4
:102E50005B1A1B0514495B0D0B436B8063460434FE
:102E6000043B36199E1B4346EB715346AA716246DA
:102E70003605AB60760D0E4B3143A98013600122FD
:102E80002A437BE7BD263602BFE7C046240100D0B7
:102E9000AD1600203405002000ED00E0CD0100104B
:102EA00000A1FFFF6405002000E0FFFF00BDFFFF61
:102EB00001488047AAAA0000F0B54546DE465746BD
:102EC0004E46E0B50D0083B0EFF3108A72B65A4A51
:102ED0001368002BFCD0BFF35F8F10229146814412
:102EE0004A46564B96009B689C59554B98469C42C7
:102EF00005D0AC4248D0534FE31B2F2B12D94F4B78
:102F00009B689C51BFF35F8FBFF35F8F00224A4BDA
:102F10001A608AF3108803B03CBC90469946A246DA
:102F2000AB46F0BD012383409B465A46464B1B6887
:102F30001A4000925A46454B1A60BFF35F8FFDF767
:102F400092F90190002803D0814501D001F03EFCA8
:102F50000123220006219A43936851569D420AD1CB
:102F600055E04B005B1806219B00FB1898685956EA
:102F7000A84211D01A000029F3DA009B002B05D1DA
:102F80005A46324B1A60BAE71C00B8E75A46304B33
:102F90001A602D4B1A60B2E7002925DB4A00501851
:102FA00080003D188046A8689860E879D8710620AE
:102FB00028569871A8797F2813D8AD88F81A6D051E
:102FC0002D1545444019E0250005400D2D022843EC
:102FD000988052181F4B9200BF181A781970BA7156
:102FE000CBE7BD200002F3E70199002917D1002AA1
:102FF00013D0FF3191711849918016490A789A715E
:10300000164ADB1B5B415A43120D0A70B5E71300E9
:103010000029C3DA019A002A01D14446EDE7104A9B
:103020001049D21A083A5002400D014399800E49C6
:1030300052080A43DA80A0E7240100D000ED00E046
:10304000CD0100103405002000E100E080E100E047
:1030500080E200E0AD16002000BDFFFFAAAA00003C
:103060006E05002000F0FFFF00F8FFFFF8B5012516
:1030700004000543FDF7F7F8EFF3108672B6214A16
:103080001368002BFCD0BFF35F8F1F4B1F4A21003A
:10309000C91A49414A43120D1D4980008F6852B236
:1030A0003F58AF421CD006215956914226D01221DA
:1030B0005956914224D01E215956914214D02A21AA
:1030C00059560320914210D0124B19781A70A171F1
:1030D000BFF35F8F00220B4B1A6086F31088F8BD98
:1030E0008B680D491950EFE702204100091889004B
:1030F0005B18FF21997109499980E5E70020F4E701
:103100000120F2E7240100D034050020AAAA000023
:1031100000ED00E0AD160020CD01001000BDFFFF66
:10312000054B064A1360064A136053609360D360F0
:1031300013615361936170478080808000E400E0F8
:1031400004E400E0D02300B51B0601001868074B1B
:1031500083B01818064B002200930523FFF7E6FC06
:10316000002801DB1F23181A03B000BD90160020B1
:10317000D48A0010024B9C4661448900016070476C
:103180004000003483680B4810B5844661446244B3
:10319000090112019A18591854684B6801209C4281
:1031A00001D802D00020C0B210BD12680B689A424C
:1031B000F9D8F7E7FFFFFF0F10B508000B690C0007
:1031C0009847002803D1E0600021002010BD20684E
:1031D0006168FBE70A4B1968EFF3108072B60A6862
:1031E000002AFCD0BFF35F8F1B68BFF35F8F002204
:1031F0001A6080F3108840BF002000217047C0464D
:1032000058160020F8B557464E464546DE46E0B50E
:103210001F000CAB1D780DAB1B7881469A460368E6
:1032200016009846002D3BD1987B002832D04246AC
:103230004546440012682418033C121951780300D3
:10324000A973002900D1E973002105009170517024
:10325000117029E0D31814199D702278002A00D02B
:103260005A705B46237043465D734B463200187DAF
:103270003B0000F01BFE041E07D05346002B04D178
:103280004B462900186800F0CDFF0E9B002B44D060
:1032900028001C703CBC90469946A246AB46F8BD3F
:1032A0002B006C006419033C1D4A94464A46926800
:1032B000634494461B010A9A63449A600B9A1E6009
:1032C0005F60DA60434600221B681B199A705A70CF
:1032D0001A7043465B7B9B46002BC4D043462A00B2
:1032E000986859465B6898475B4642465B005B447A
:1032F000033B12680028ADD0D31814195A46A270A7
:103300001A78002A07D11D705A46434628005A737E
:10331000AB45BFD1A9E76270F5E72800BAE7C04620
:10332000FFFFFF0FF0B5DE46454657464E46724B4F
:103330008200E0B5D55800238DB00B909B4627E066
:10334000069A079B1100194303D02B69002B00D06C
:1033500093E02B68DA7B002A07D051008A1819689D
:103360008C4649466244033A51704A46DA73EA6829
:103370004B469446013B63441A7801321A705B460F
:103380002B616B68BFF35F8F5A461A6084F3108815
:1033900000F02AFD6A68EFF3108472B61368002B00
:1033A000FCD0BFF35F8F2B689C465B7B9946002B5C
:1033B0005BD0AA68514B90464B441B01984443464E
:1033C0001A685B6816001F00361A8F41002F6EDDE9
:1033D0000B9800F06BFD00220023002700260892C6
:1033E00009936B68BFF35F8F5A461A6084F31088A5
:1033F000002E76D0534618024B4639001843B0478A
:103400006A6806900791EFF3108472B61368002B78
:10341000FCD0BFF35F8F079B002B91DA2B69002B49
:1034200097D006980799089A099B121A8B41089819
:10343000099906920793079A914203D807D1069AF1
:10344000904204D901225242D317069207935B4659
:10345000012104934B460391029301970096069A2B
:10346000079B2800FFF7CEFE89E7002200230027F4
:103470000892099300260020B3E700F0B5FC069AF5
:10348000079B12184B41994202D804D1904202D9AD
:1034900001225242D3175946049101210391494612
:1034A0000197029100962800FFF7ACFE67E7002F16
:1034B00001D1002E8CD10021604600F007FE43466A
:1034C0001A685B680892099343469E68DF68EB6858
:1034D0004B44013B1B789A461B021843286100208D
:1034E0007FE7002800D053E70DB03CBC90469946DA
:1034F000A246AB46F0BDC0463C160020FFFFFF0FC2
:1035000010B5124C6368002B04D00A211048FFF755
:1035100031FE10BD23000F4A1021206800F0B8FDD5
:10352000032000F055FC032000F02CFD0A49032085
:1035300000F076FCFFF75EFB084B9C4603236044DB
:103540002375074B80006060DC60DEE77C050020AF
:10355000581600208531001025330010400000343B
:103560003C160020004870477C050020F0B5454619
:10357000DE4657464E46E0B585B00092019310AB4B
:103580001B7805009B4600239A4698466A68EFF32D
:10359000108972B61368002BFCD0BFF35F8F2E68C2
:1035A000B47B002C50D067003F193368033FDB1910
:1035B0005A78B273002A00D1F27342469A705A7058
:1035C0001A70AA68534B94460099019AE3181B019C
:1035D000634419605A600E9A9A600F9ADA60424604
:1035E0003368DB199A705A701A70737B0393002B3F
:1035F00040D01900736822009C46B068E0470399E8
:1036000032688C464B006344033B00282BD0D7190B
:10361000D318B9701A78002A00D073E01C70039B8D
:1036200073739C4227D0EB681B19013B18786B68B9
:10363000BFF35F8F42461A6089F310885346002B10
:1036400026D10002204307E06B68BFF35F8F1C6048
:1036500089F310880120404205B03CBC9046994651
:10366000A246AB46F0BDD318D7199C703A78002A11
:1036700044D139707473287D009A019B00F016FCC8
:1036800082460028CFD02100286800F0CBFDCAE791
:103690005B46002B30D00E9B0F990020984703000B
:1036A0000B4329D006000F1E15DA0098019902007D
:1036B0000B00921BBB41994202D808D1904206D917
:1036C00001235B42DC1700930194DA465EE7009227
:1036D0000193DA465AE700F087FB36184F4100960F
:1036E0000197B942ECD8F0D1B042EED901235B4248
:1036F000DC1700930194E8E70020ADE75A70039BC4
:103700003B70B7E77A701C70039B73739C4200D0C8
:1037100089E7B0E7FFFFFF0FF0B54546DE465746A5
:103720004E46E0B585B01099050088461100194352
:1037300000D1CFE0D81704005440260004005C40BC
:1037400001002700361A8F4141460E980A600F9AF1
:103750008D6008614B604A6100F046FB36184F41AE
:1037600000960197B94200D8B9E001235B42DC170B
:103770000093019400239B4699466A68EFF3108AF0
:1037800072B61368002BFCD0BFF35F8F2E68B47B3A
:10379000002C51D067003F193368033FDB195A787A
:1037A000B273002A00D1F2734A469A705A701A70A6
:1037B000AA68574B94460099019AE3181B01634489
:1037C00019605A60534A9A604246DA604A46336842
:1037D000DB199A705A701A70737B0393002B47D0D1
:1037E0001900736822009C46B068E047039932686C
:1037F0008C464B006344033B002830D0D719D318C4
:10380000B9701A78002A00D07A701C70039B737309
:103810005E469C422DD0EB686A681B19013B1B7801
:10382000BFF35F8F494611608AF31088002E2CD1B8
:103830001B021C43012608E06B68BFF35F8F1C600E
:103840008AF3108801240026644243463000DC607D
:1038500005B03CBC90469946A246AB46F0BDD31895
:10386000D7199C703A78002A40D05A70039B3B705D
:103870007473287D009A019B00F018FB061ECAD0C5
:103880002100286800F0CEFCC5E740460369984750
:103890008346011E01D10024D7E743461A685B68BE
:1038A0001000184324D016001F1E24DA0098019936
:1038B00002000B00921BBB41994202D807D19042F3
:1038C00005D901235B42DC170093019455E7009270
:1038D000019352E7012600270122002334E7B94271
:1038E00000D047E7B04200D93FE743E73970BFE770
:1038F0000E000024A9E700F077FA36184F41009631
:103900000197B942DDD800D037E7B042D9D834E7C3
:10391000FFFFFF0FB9310010F0B557464E46454640
:10392000DE460400E0B50D0006267642F71736198C
:103930006F4185B08F4200D987E000D182E000F06E
:1039400053FA32003B00121A8B41002B00DC87E057
:10395000674B99465A68EFF3108B72B61368002BC9
:10396000FCD0BFF35F8F4B461B6898469B7B9A4603
:10397000002B7BD05B0053444246033B9C464146B0
:1039800012680093624453788B73002B00D1CB7381
:10399000002349469370537013708968554A8C46CA
:1039A0005244554912016244166057609160D360D9
:1039B000009942468C4612686244937053701370AB
:1039C00043465B7B0393002B00D16FE01900404618
:1039D000434652465B6880689847039B9C465A0062
:1039E0006244033A002854D0009940468C4603684C
:1039F00003999A18634499701178002900D059707E
:103A0000534613704246039B53739A4551D04B461D
:103A10005B68BFF35F8F00221A608BF31088BC468F
:103A2000B0460094019500266546344F344A7B6ABF
:103A30009D424CD8B96A414501D29D4247D0009C75
:103A4000019D1BE0864200D879E70026002700F0A0
:103A5000CBF932003B00121A8B41002B00DD77E7D7
:103A6000002B0BD1002A00D072E707E04B465B68C1
:103A7000BFF35F8F52461A608BF310882000290035
:103A800000F0BEF905B03CBC90469946A246AB4654
:103A9000F0BD43461968009B8A18CB1851469170B7
:103AA0001978002900D05170039A1A704346524683
:103AB0005A734B463200187D3B0000F0F7F900289E
:103AC000A5D04B465146186800F0ACFB9FE7116843
:103AD000EFF3108072B60B68002BFCD0BFF35F8F42
:103AE0001368BFF35F8F1E6080F3108820BF9EE7CE
:103AF0007C050020FFFFFF0FD5310010004005407E
:103B00005816002070B504000D0000F06DF9020099
:103B10000B0020002900801859418B4205D9012053
:103B20004042C117FFF7F8FE70BD8B42FAD18242C6
:103B3000F5D8F7E770B5060000F056F9FA22040050
:103B40000D00920000233000002101F053F900190C
:103B500069418D4205D901204042C117FFF7DCFEC3
:103B600070BD8D42FAD18442F5D8F7E7F8B55746D3
:103B70004E46DE464546664CE0B581460F0062681B
:103B8000EFF3108872B61368002BFCD0BFF35F8F81
:103B90002668B57B002D00D19FE06B005B19033BCD
:103BA0009A46336853441A005B78B373002B00D1F4
:103BB000F3730023937053701370A168554A8C46B9
:103BC0004946AA181201624411605349D3605760F4
:103BD000916032685244937053701370737B9B46AC
:103BE000002B6DD02A001900B068736898475B46B7
:103BF0005A005A44033A002857D0594633689A1855
:103C0000534499701178002900D059705B461570A3
:103C100073735D4555D00026E36862685B19013B0C
:103C20001B78BFF35F8F0021116088F31088002E8E
:103C300059D11B021D4320BF6268EFF3108872B692
:103C40001368002BFCD0BFF35F8FFF232068E9B21D
:103C5000427B2B408A4250D05A00924602689A44D6
:103C6000944652466244033A9278002A45D1236929
:103C70009D4200D122616368BFF35F8F00221A600A
:103C800088F31088254A536A9F4207D8926A012612
:103C90004A4503D2FF1A7B1E9F41FEB230003CBC56
:103CA00090469946A246AB46F8BD534631688A18FD
:103CB000CB1895701978002900D051705A461A70A7
:103CC0007573207D4A463B0000F0F0F8061EA2D036
:103CD0002900206800F0A6FA9EE76368BFF35F8FB3
:103CE0001D6088F310880D4A0026536A9F42D5D87C
:103CF000926A01364A45CDD3D0E7E2682D0A944650
:103D00006344013B1B78AB42B5D100F08BFAB2E7BC
:103D10007C050020FFFFFF0FD5310010004005405B
:103D2000F0B5C64600B5EFF305833F2213401800F7
:103D30001038EFF3108772B61F4D2A68002AFCD0A6
:103D4000BFF35F8F012211008140884644461B4922
:103D50004C631B4C2678A4463400C440224007D153
:103D6000BFF35F8F2A6087F3108804BC9046F0BDD4
:103D70004C6A1449820051588C420FD3124BD258CE
:103D800043469E4363461E70BFF35F8F00232B6044
:103D900087F31088002AE8D09047E6E70B4A9B009B
:103DA000944663441A681A60BFF35F8F00232B6048
:103DB00087F31088D9E7C046280100D000400540AD
:103DC000B8160020641600205C0C0020D03F05408F
:103DD00010B50100024A0348FEF786FE10BDC0463A
:103DE000F08A0010AC160020044A516A00E0190065
:103DF000906A536A9942FAD17047C0460040054024
:103E0000064A536A9942FCD807D1044B02E05A6A29
:103E1000914202D19A6A8242F9D37047004005402C
:103E200070B504000D00EFF3108672B61A4A1368DD
:103E3000002BFCD0BFF35F8F002D1BD02000FEF7BE
:103E400025FF164988420AD02000FEF727FF0121EE
:103E50002000FEF7EBFE0123A340114A1360114B33
:103E6000A400E550BFF35F8F00220B4B1A6086F36E
:103E7000108870BD0B4BA200D5500122A2400A4908
:103E800020000B7893430B700449FFF715F80021CD
:103E90002000FEF7CBFEE5E7280100D0213D001011
:103EA000386005405C0C0020B8160020F0B5D646FE
:103EB0004F4646462E4CC0B5656A00E00D00A66A26
:103EC000616AA942FAD1AB4248D9EFF3108972B6C0
:103ED000284C21680029FCD0BFF35F8F26490126BA
:103EE0008C46097886400F00884661463743FFB20A
:103EF0000F70041D1E49A400204D4E6362508400C3
:103F000063510D6A002435421BD04D6A00E0250044
:103F10008C6AA2464C6AAC42F9D1AB4224D801D19A
:103F2000524521D8474521D0114B154A1E625E6388
:103F30001F2318401E3B8340136063464246012402
:103F40001A70BFF35F8F00220A4B1A6089F3108842
:103F500020001CBC90469946A246F0BDAB4201D160
:103F6000B242B2D80124F3E70024EAE70124E8E7EB
:103F700000400540280100D0B8160020641600203B
:103F800080E200E010B5EFF3108472B60A490B68C6
:103F9000002BFCD0BFF35F8F01238340074A084802
:103FA000136202789A430270BFF35F8F00230B60A5
:103FB00084F3108810BDC046280100D000400540A1
:103FC000B8160020F8B54746CE4680B54C000368C9
:103FD0006418033C1A19567807000D00002E04D10E
:103FE00028000CBC90469946F8BD71008919033928
:103FF0008846434459788946002159705170002DF4
:1040000011D07B6832002900806898473B680028FF
:1040100032D01A1943449D701178002900D059708C
:104020001670A04600E035004B46002BD8D049461C
:104030003800FFF7C7FF041ED2D002007B682900BA
:10404000B868984763001B19033B3A68002809D1F8
:10405000D318424494701978002900D051701D7013
:104060002500BDE74146D31851189D700A78002AF3
:1040700000D05A700C70B3E742461C199A18A6700B
:104080001378002B00D0637015703500CCE7C04664
:1040900010B583600023CCB24373013304734260D4
:1040A0008373C4730068012C06D9421C0133DBB250
:1040B000137003329C42F9D8FF2319404B00591862
:1040C000002340180338437010BDC046F0B54E467B
:1040D00057464546DE46E0B5467B03687400A419A2
:1040E000033C1A19177883B005008946002F1ED1AA
:1040F000002911D0C07B00282AD041000918591886
:1041000003394E70EE73002F06D07900C9190339B8
:1041100088460021434499700023300053706F7328
:1041200003B03CBC90469946A246AB46F0BD790030
:10413000C91903398846591848788246002809D198
:1041400049460029E5D0E87B0028D6D1EE73DCE7AC
:10415000EE73E1E742005244033A93465B445A78D7
:10416000019200225A704A706B6802003900A868F8
:1041700098472B68002830D1414650465A46591876
:104180009A1888701078002800D048701770D846A8
:104190005746019A002A2DD011002800FFF712FF80
:1041A0008246002825D0020039006B68A86898472D
:1041B00053465900514403392B6800281CD042460D
:1041C000591898188F70027894461A196446002C72
:1041D00000D04C7051460170B2E75946424659181A
:1041E0009A188F701078002800D0487051461170CE
:1041F000CFE72B681A19A3E75A18984493465046FC
:10420000424690705A461278944660461A19002821
:1042100002D0404664464470584688460770574668
:104220008EE7C046F0B54546DE4657464E46E0B5F9
:104230000C0083B005000023002927D06600477BCF
:1042400001683619033E8819A74233D08278002AC4
:104250001CD053009B18033BCB181A78A2421FD1E5
:1042600042781A7000230278837043709146002AC6
:1042700033D1EA7B002A66D053009B18C918033952
:104280004C70EC730023437001236F73180003B06C
:104290003CBC90469946A246AB46F0BD002AE1D010
:1042A00053009B18033BCB185A78A242F6D14278B0
:1042B0005A70D7E702780192002A46D1EA7B002A99
:1042C0003FD053009B18C91803394F70EF73002378
:1042D0004370019B6B730123D8E752004A44033AB1
:1042E00090468A185778002F42D1EB7B002B00D0E4
:1042F00029E14F466E7BEC73002393704370002ED0
:10430000C2D03A006B683100A868984773009B19C7
:10431000033B2A68002808D0D318424496701978C5
:1043200000290CD11F703700AEE74146D318511851
:104330009F700A78002A00D05A700E70A4E751705E
:10434000F0E7EF73C3E7EC739CE71400A446520058
:104350006244033A90468A185478A146002C58D1FA
:10436000EB7B002B00D0F7E0EF7300239370AEE7F8
:104370007800C01903388246514448784B70537016
:104380006B6883463A004946A86898472B6800281E
:1043900000D1A2E042469818524699184A468A70BF
:1043A000019002000078002801D0019A487017702F
:1043B0004F465A46002A28D059462800FFF702FEE9
:1043C0008146002820D002006B683900A868984711
:1043D0004B465B004B44033B9C4600286DD0424655
:1043E0002B689818624699188F7001900078002801
:1043F00000D083E04A4601980270E97B98196E7BF1
:10440000002951D1019A76E72B6842469A18019209
:10441000F3E76000484403388246514448784B70C3
:1044200053706146220083466B68A86864469847CB
:104430002968002878D0524643468A18CB189470D1
:104440001878002800D050704A46C2461A705B4661
:10445000002B50D059462800FFF7B4FD80460028B5
:1044600048D0019C020021006B68A8689847434629
:104470005A004244D31E2968002844D05246CB1823
:104480008A189C701078002800D05870434613702A
:10449000EB7B8819002B00D166E75E00F318C91882
:1044A00003394F70EF7360E74A00944661445B182C
:1044B000033B5C70019AEC731EE729684846CA18F2
:1044C0004346CB1898701078804688194646002ECF
:1044D00000D05E701770E04607E741465246591813
:1044E0009A188F701078002800D048704946D0463E
:1044F00011705EE729685346CA18C9E74A464870F2
:1045000001990A7079E7CA1853464046CB1898704B
:104510001078844664468819002C00D05C70019B9A
:104520001370434601931BE75346CA184346484657
:10453000CB1898701078002800D05870019B137029
:104540004B46019383E703267343C91803394C7024
:104550006E7BEC734F46CFE603267343C9180339CD
:104560004F7001E710B50400FEF744FB0100200086
:10457000FEF700FEFF232371BFF35F8F10BDC0461F
:1045800010B50400FEF736FB01002000FEF7F2FD37
:10459000FF23A380BFF35F8F10BDC04610B504009A
:1045A0000120FEF733FB044B9C46604480002060F2
:1045B000BFF35F8F10BDC04640000034F8B5040063
:1045C00006200D0000F06CFA03000020002B51D0F3
:1045D0002B4B2C49E3185A1E934180221204944617
:1045E0005B42294A9B0563441360284A1360180004
:1045F0008A689043FBD1224B8021E3185A425341F1
:10460000234A5B0049000620995200F049FA29002C
:10461000C00000F083FBC3090BD01E4A93422AD886
:104620007F221040013040089F011A003F1803000C
:1046300001E040270122260080256262A362002358
:104640002C36AD0135432B60062000F029FA3900E5
:10465000800000F063FB6023E26A53406E221A4040
:1046600080235B0133431A600B4B236310232B60C1
:104670000D3BA364F8BD094F0023094ADBE7C046A0
:104680000080FCBF00C0004000E0004000F000409F
:10469000BC160020FEFF000001030000C0FF3F0029
:1046A000FFFF00002D4B2E4A70B51A602D4A2E4B8D
:1046B0002E491A6010008B689843FBD12C4C2D4D6D
:1046C000AC4209D20322231D0335ED1A9543ED18A0
:1046D00008CC9847AC42FBD100F07EF8264A224B2A
:1046E0001A60224A9368DB018033FBD14022234BBE
:1046F0002348244D9A675A671A67DA66A84205D399
:104700000EE0FFF73DFF2000AC4209D20400036831
:104710000834002BF5D1FFF725FF2000AC42F5D37C
:10472000194D1A4CC022A168280000F0D5FBA560E5
:10473000FEF752FAFEF7F4FCFEF7E2FE144C154DBC
:10474000AC4209D20322231D0335ED1A9543ED181F
:1047500008CC9847A542FBD170BDC04600E00040A0
:10476000BFCDFBFEFE7F3C0000F0004000C00040DB
:104770003C0600204C060020FFFFFF0100F0014036
:10478000340600203C0600200000002000ED00E080
:104790004C0600205C06002000BEFDE70FB400B50B
:1047A000084883B000F03CFC049B002B07D005A90F
:1047B0001800019100F03CFA034800F031FC00BE03
:1047C000FDE7C046208B0010308B001010B501486B
:1047D000FFF7E4FF148B001030B50C2083B000F01D
:1047E000B9F9FEF7F1F900280ED0964B964A1A60F7
:1047F0005A609A60DA601A615A619A61DA611A62E3
:10480000924A5A6203B030BD914CA06700F0F6F9AD
:104810000122904B1A60636C012BFCD103228E4B5A
:104820001A608B4A936B012BFCD1013300938B4AA6
:10483000043301218A4800F039F90523894A00939D
:104840000121894800F032F9884B5A68FF2A02D8C2
:10485000802252005A6080227A4C7F4B21691201DB
:10486000824D1A60002900D0E5E0E0217F4B022054
:104870001A681140802252012A4311601968484089
:1048800003210140116004219A681142FCD080226A
:10489000802192012A4309011160802252005A604E
:1048A000734B2361734B5968FF2900D8C1E0032281
:1048B000684B70481A60012103009A681142FCD0CD
:1048C000E0251A68154080225201024315601B68DA
:1048D0004B400321194011600221664A9368194236
:1048E000FCD0802380219B010343090119608021B2
:1048F000614B490051606361604B5A68FF2A00D8E0
:10490000596080225E4BE16912015C4D1A600029FA
:1049100005D0606900F002FA01300138FDD1E022D3
:1049200056490B681A4080235B012B431A60802391
:1049300080229B012B4312011A608022424B5200BD
:104940004A60E3614F4B5968FF2900D85A608022C2
:104950004D4B216A12014B4D1A60002905D0606948
:1049600000F0DCF901300138FDD1E02245490B6847
:104970001A4080235B012B431A60802380229B0115
:104980002B4312011A6080235B004B602E4B3F4A81
:1049900023623F4B5968914201D801325A6080220C
:1049A0003C4B616A12013A4D1A60002905D06069DA
:1049B00000F0B4F901300138FDD1E02234490B6830
:1049C0001A4080235B012B431A60802380229B01C5
:1049D0002B4312011A608023DB024B601B4B636286
:1049E0002D4B5A68FF2A02D8802252005A6080223A
:1049F0002A4BA1691201284D1A60002905D060696F
:104A000000F08CF901300138FDD1E02222490B6819
:104A10001A4080235B012B431A60802380229B0174
:104A20002B4312011A6080235B004B60124BA36181
:104A3000E8E65A603BE7606900F070F90130013840
:104A4000FDD112E7700D0020006CDC021BB70000E6
:104A5000008000403CB0004030B00040002F68595A
:104A600000800240008C864700C002403080004039
:104A7000001BB7003C800040405973075480004041
:104A800054B000406080004060B00040FFFF030071
:104A90006C8000406CB000404880004048B000404E
:104AA000014B8000C0587047700D0020F8B504001D
:104AB0000C201E0017000D0000F030F94201121A00
:104AC0009101891AC90009188901380000F026F9F6
:104AD000069B36041B031E432368002B21DB194B66
:104AE000E21853425A4180235B019C4652421A40CD
:104AF000154B62441A60154B1A60154B17009968E4
:104B00008F43FBD1C023221D9B011343212225602B
:104B1000A0601A602268002AFCDA0822E6601A60A7
:104B2000F8BD3F2322681340AB42D8D1A3681B05D0
:104B30001B0D8342D3D1EE22E368D2021340B3426D
:104B4000CDD1EDE70040FDBF00E0004000F00040A7
:104B500000C0004080239B001843014BD86270477F
:104B60000080054010B580241B4BE4051C60002824
:104B70001AD00123194C1843194BDC61194C4440DD
:104B80001C62596298628021134BC905196016484E
:104B900016490860E021C9041960002A07D1802263
:104BA000134B12061A6010BD0D4BD861EBE7530191
:104BB0009B1A9B009A180F4B12019A4208D80E4B71
:104BC0001A60074B5A608022094BD2051A60EAE747
:104BD000094A13601A00F4E700B00540D3C007B0DB
:104BE000008005402D3FF84FFCFF010008200140E8
:104BF00000A00540FFFFFF0030160020AA23064A50
:104C00001B0113602F230549D360054B19605368BE
:104C1000002BFCDA7047C0460040024000B0FA00AA
:104C20000060024010B5002801D000F0A9F910BDC5
:104C300010B5094A84B01468002C09D001220091F3
:104C40000300524203A90548A047012004B010BD4B
:104C500000F0E6F90020F9E72C160020254C0010A2
:104C600001480421014B1847B0050020914C001069
:104C7000142310B50100188804331B88984710BD11
:104C8000162310B50100188802331B88984710BD01
:104C9000F0B5C64600B5002916D01423040001253E
:104CA00098461827890046184346216818883B888B
:104CB000984701C4431E984140420540A642F3D1A3
:104CC000280004BC9046F0BD0125F9E7124A936F15
:104CD0009B0815D29066D166002905D0FFE7FFE753
:104CE000FFE7516F106F704704B580210906C217A6
:104CF0005140002800D0C84303F09AF9002104BDB8
:104D0000F0B5146E556E576F166FFFF7E3FF14661C
:104D1000556657671667F0BD000000D0114A936FC3
:104D20009B0813D210665166002905D0FFE7FFE704
:104D3000FFE7516F106F704704B5002801D00020C5
:104D4000C04303F075F9002104BDC046F0B5146EF0
:104D5000556E576F166FFFF7E5FF14665566576778
:104D60001667F0BD000000D0132370B51C78012C2D
:104D700011D01ADD0F48FFF783FF0F4D010080228D
:104D8000280000F0A9F8022C10D00C48FFF770FFA3
:104D90000B4B186070BD084D0A4A29002B0080316A
:104DA00004C38B42FCD1AA64EFE7034D054AAA6411
:104DB000EBE7C04653440000C01600204C3300000F
:104DC00054160020C94D001007B5604601880A0A34
:104DD0000230DF2AFAD1C9B2820804D3028840889F
:104DE0000004104300E00068014A5050039007BDE2
:104DF000C016002051434343C9188C46110C83B29E
:104E00004B4310B4040C614392B280B250436243EE
:104E10001C041B0C001910BC59411304120CC018BF
:104E20005141614470470000132310B51C781348AA
:104E3000FFF726FF012C0BD004DD01008022104873
:104E400000F04AF80F48FFF713FF0F4B186010BD32
:104E50000B4C01005422200000F03EF80B4B636520
:104E6000A365E36523666366A366E36623676367FA
:104E7000A367E3672362E361E4E7C04653460000AB
:104E8000C01700204C33000054160020914E001033
:104E900007B5604601880A0A0230DF2AFAD1C9B292
:104EA000820804D3028840880004104300E00068B0
:104EB000014A5050039007BDC0170020014804214B
:104EC000014B1847C0050020914C0010014B1B6896
:104ED00018470000C0050020014B5B681847000020
:104EE000C0050020F0B5C64600B5437C06000C00A6
:104EF0001500002B06D1036811002000984704BC60
:104F00009046F0BD002AFADD0A78037C00200A2AC8
:104F10002CD00121012D1BD0184B984602E03900FE
:104F2000BD4215D04B1EE25C635C4F1C0A2BF6D1D0
:104F30000D2AF4D03368884203DA091A20189847FA
:104F4000336802214046984738003900BD42E9D114
:104F5000854203DD291A3368201898476419013CFB
:104F600023780D3B5A4253413374C8E7002BD0D10C
:104F700002480221336898470120CAE7108C0010CC
:104F8000F0B5CE46474680B583B06B46DD1CD023D6
:104F900028701B061C681F4B804601A91800994603
:104FA00003F04EF8071E2DD1019B64B29C4224D021
:104FB000484603F055F8184B01271C68002C25D0F3
:104FC000164E07E0012229002000FFF78BFFE4685E
:104FD000002C0AD02368002BF9D03368002BF1D0C5
:104FE000A342EFD0E468002CF4D1002F0ED140464C
:104FF00003B00CBC90469946F0BD074B1C68002CD2
:10500000DED1F4E7044B1C68002CD9D1484603F0EC
:1050100007F8ECE7340600200812002028120020D0
:10502000F0B5DE4657464E464546E0B583B007002C
:1050300002F0B8FFD02301AD1B06060029002F485F
:105040001C6802F0FDFF8246002849D1019B64B232
:105050009C423FD0294803F003F8294B9B461C682B
:1050600001239A46002C40D0264B98460A239946A5
:105070000EE0320039002000FFF734FF4B460122DA
:10508000290020002B70FFF72DFFE468002C0BD0C7
:105090002368002BF9D043461B68002BE9D0A342BC
:1050A000E7D0E468002CF3D15346002B1DD15B46BA
:1050B0001C68002C06D06368002B1AD09847E4685F
:1050C000002CF8D1300003B03CBC90469946A24673
:1050D000AB46F0BD0A4B1C689B46002CC4D1F1E7DF
:1050E000074B1C689B46002CBED1044802F098FF79
:1050F000DDE7E468002CDED1E4E7C046340600209A
:1051000008120020281200200A4A1368002B05D13B
:105110000CE01A00DB680C32002B07D09842F8D163
:10512000002902D1C3681360C16070470029FCD018
:105130001060FAE70812002010B500F047F800F000
:10514000A9F910BDF0B5002915DD0E4B0D271A6821
:105150000D4B4118D3185C4263410C4C5B001E5F41
:1051600020240578AE4207D093691C42FCD101305F
:1051700015608842F5D1F0BD93691C42FCD11760DF
:10518000F2E7C046741600200080FCBFBC16002069
:1051900030B5002915DD0C4B1A689369DB0610D475
:1051A00000251024013593691C42FCD1136803705B
:1051B000A94204D0936901301C42F3D029000800B1
:1051C00030BD03204042FBE774160020E12110B5FA
:1051D0000B4B0C481B780C4B49021B780B4B18608F
:1051E000FFF7ECF902210020FDF71AFC0221012053
:1051F000FDF716FC01210648FFF786FF10BDC046EB
:105200005C8E001000400340608E00107416002079
:10521000D00500207047C0460022014B1A7070472D
:10522000AE160020012070474B790020FF2B00D0E4
:1052300070478B79002BFBD1CB79012BF8D1082A51
:10524000F6D98A78014B09301A70F1E7AE160020C2
:1052500070B5002915D115495379107909781B02C9
:1052600003430020994200D070BD5378012B0AD02F
:10527000022BF9D1002064220021FFF773FC0120EA
:10528000F2E70120F0E7D478917824020C4305007E
:10529000E20502D5620A93401D000548FFF7E8FCCD
:1052A0007F210300214028009847C046AE16002009
:1052B000554200000123037000487047548C0010D1
:1052C0004A780B7812021A438B7810B51B041A43E4
:1052D000CB781B0613439622D200934200D010BD18
:1052E0000348FFF7C5FC0021030008009847C046AB
:1052F0005542000070B5184C82B005000E00200029
:1053000001A902F09DFE002808D1D0231B061B68CE
:10531000019A9A421CD0200002F0A2FE002001F067
:1053200067FE002807D103256D42200002F078FEB9
:10533000280002B070BD002001F072FE0028F2D0FB
:1053400029003200002001F079FE051EEBD0ECE7C9
:1053500003256D42ECE7C0465C16002010B5044BF7
:105360001878FDF775FCFA200021800010BDC046BA
:10537000AF16002010B5024B1878FDF769FC10BD80
:10538000AF16002010B5064C0021200002F058FE98
:10539000002804D000F086FE200002F041FE10BD7F
:1053A0005C160020F0B546464F46D646C0B5364F8F
:1053B00082B080460E00380001A902F041FE0028AC
:1053C0000ED1D0231B061B68019A9A4205D102B068
:1053D0001CBC90469946A246F0BD380002F040FE43
:1053E000002001F005FE002832D00024002E34DD1C
:1053F000264B99469A4612E0002843D100F052FE0F
:10540000002001F09BFE002001F0F2FD002824D0D6
:10541000002001F0CFFE002823D0A6421DDD002091
:10542000351B01F0C7FE8542E6DC43462A00191908
:10543000002001F03BFE050000F034FE002001F0EA
:105440007DFEFEF7D1FC4B46641918605960E4E715
:10545000002000210D4B18605960380002F0E0FD7B
:10546000B5E7FEF7C1FC53460D001A685B680021E2
:105470008446074812184B419D42EED8CDD1944541
:10548000CBD9EAE70500D0E75C16002060070020D2
:1054900020A1070030B5244B85B01B7802F09CF8A2
:1054A0002248FFF75FF80120FDF74CFEFF23204C58
:1054B000204920701840FDF7F1FB20780121FDF70D
:1054C000B5FB0520FDF7CCFB041E0CD000221A49C9
:1054D0000520FDF70DFC01211848FFF715FE0124FA
:1054E000200005B030BDFEF73DF80500FEF77CFC5E
:1054F000FA220023920012184B4199420ED9012240
:105500005242D31701210291002101910C49280038
:105510000091FEF72BF80028DDD1E1E79942F1D1A7
:105520009042ECD8EEE7C046648E00105C16002076
:10553000AF1600208553001075530010E4050020BD
:105540005D530010004870470C8D001000487047F4
:10555000B88C001070B5040016480378002B20D0DA
:10556000002C06D1C1241448144BA40043800480AD
:1055700070BD052C1CD8124B0F48A400E558811CA7
:10558000002304E001330A800231132B0DD0EA5CC2
:10559000DCB2002AF6D1C023013464009B001C4316
:1055A000E5E7112102F0A0FADAE7CA24A400DEE759
:1055B0000020DDE77C160020D80D00200904000043
:1055C000208D0010F0B55746DE464E4645469823DE
:1055D0008024E0B56B4A6402D75883B0274228D0B4
:1055E00001222321684B00205A54DA70674901F0E8
:1055F000B3FA8022664B92021A65664B9A46FB0606
:105600001CD480235B011F424AD18023DB011F424F
:1056100000D08DE080231B021F4200D096E0BC42E8
:1056200000D0AAE003B03CBC90469946A246AB46E7
:10563000F0BD102300249A46FB06E2D5514B9B6D2A
:105640009846002B27D0524B00249B4601239946B5
:1056500043460126B8461F0004E001347600E4B258
:10566000202C17D03E42F8D05B469E654B4665081D
:10567000A3436D00ED18444B6D019C466544280022
:1056800000F08CFB00286CD10134B743E4B2760003
:10569000002FE5D1474680235B0154461F42B4D01A
:1056A0001C430023374A00211360384A3A4893606C
:1056B000D3603A4A9360D360394A9360D360394AE1
:1056C0009360D360384A9360D360384A9360D36064
:1056D000374A9360D360374A9360D360364A936009
:1056E000D360364A9360D360354A9360D360354ABD
:1056F0009360D360344A9360D360344A9360D3603C
:10570000334A9360D360F0229200FFF7DFFB314B06
:10571000314A00211A600020012201F0F1F98022B3
:105720001B4B12031A658023DB011F4200D171E776
:105730000122042100201C4301F050F91022144BD7
:105740001A6580231B021F4200D168E70122052150
:1057500000201C4301F042F980220D4B12011A6512
:105760005DE74B46AA8AA97800200093002301F048
:105770001BFA280000F03AFA86E721001748794022
:10578000FFF70CF8000011502C1200200000105000
:1057900000301150100001006C1200200800105061
:1057A0001000105018001050200010502800105009
:1057B0003000105038001050400010504800105079
:1057C00050001050580010506000105068001050E9
:1057D000700010503816002080011050388D0010D5
:1057E00010B501210520FDF721FA10BD10B50022EA
:1057F0000021024800F02CFA10BDC0464C120020D7
:105800008022024B5202DA647047C04600201150D9
:10581000F0B5C64600B5070000F0C2F90C23354DBF
:105820003549AB670520FDF739FA40239846334CDC
:10583000402200212000FFF749FB43460126A383B5
:10584000212100232E4A6670A260136063545F31E9
:1058500061844146A187023963542A4A2A49636018
:10586000E260A1620B60E262284A63629360D360E7
:10587000274A20009360D360264A00219360D360BA
:10588000254A40309360D360244A9360D360244A11
:105890009360D360234A9360D360234A9360D360BC
:1058A000224A9360D360224A9360D360214A936076
:1058B000D360214A9360D360204A9360D360204A2A
:1058C0009360D3601F4A9360D360F0229200FFF789
:1058D000FDFA1D4B1D4A38001A6080239B052E647B
:1058E000EB6490231A4AEA50FFF78AFF04BC904603
:1058F000F0BDC04600001150C55500102C1200200C
:105900008400105000011050800010500000105012
:1059100008001050100010501800105020001050B7
:105920002800105030001050380010504000105027
:105930004800105050001050580010506000105097
:105940006800105070001050381600208001105070
:1059500010D001000B785B0602D14B78052B00D0EC
:1059600070478A78014B1A60FAE7C0460000115070
:10597000F0B5CE46474680B58B7848799C460723DC
:105980000340C8780A798007800F1B021343C2B214
:1059900091467F21624666461140D4094F00294D49
:1059A0003A195201AA1896700126B4466646664016
:1059B000567000269383D6709077CA00012C27D0AA
:1059C00021488046880142442818826016600029D8
:1059D00027D01E4AC9009446614441603F223F33AC
:1059E00093434A46022A00D15B0019493F190A68CD
:1059F0007F01D3180B60174BED19EA605A408023E2
:105A00001B0613434A4696061E436B681E600EE053
:105A10001148804688014244281882621660002995
:105A20000AD1002364012D196B600C4BEB6001203F
:105A30000CBC90469946F0BD064AC90094466144A4
:105A40004162CBE72C12002084001050040010505B
:105A50003816002000001050800010500001105037
:105A600000231C4A10B59360D3601B4A0021936049
:105A7000D3601A4A1A489360D3601A4A9360D3607D
:105A8000194A9360D360194A9360D360184A9360AF
:105A9000D360184A9360D360174A9360D360174A63
:105AA0009360D360164A9360D360164A9360D360C4
:105AB000154A9360D360154A9360D360144A93608B
:105AC000D360F0229200FFF701FA124B124A1A60DB
:105AD00010BDC046000010500800105010001050BB
